{
  "contractName": "Crud",
  "abi": [
    {
      "inputs": [],
      "payable": false,
      "stateMutability": "nonpayable",
      "type": "constructor"
    },
    {
      "constant": true,
      "inputs": [
        {
          "internalType": "uint256",
          "name": "",
          "type": "uint256"
        }
      ],
      "name": "Users",
      "outputs": [
        {
          "internalType": "string",
          "name": "",
          "type": "string"
        }
      ],
      "payable": false,
      "stateMutability": "view",
      "type": "function"
    },
    {
      "constant": true,
      "inputs": [],
      "name": "nextId",
      "outputs": [
        {
          "internalType": "uint256",
          "name": "",
          "type": "uint256"
        }
      ],
      "payable": false,
      "stateMutability": "view",
      "type": "function"
    },
    {
      "constant": false,
      "inputs": [
        {
          "internalType": "string",
          "name": "_name",
          "type": "string"
        }
      ],
      "name": "Create",
      "outputs": [],
      "payable": false,
      "stateMutability": "nonpayable",
      "type": "function"
    },
    {
      "constant": true,
      "inputs": [
        {
          "internalType": "uint256",
          "name": "_id",
          "type": "uint256"
        }
      ],
      "name": "Read",
      "outputs": [
        {
          "internalType": "uint256",
          "name": "",
          "type": "uint256"
        },
        {
          "internalType": "string",
          "name": "",
          "type": "string"
        }
      ],
      "payable": false,
      "stateMutability": "view",
      "type": "function"
    },
    {
      "constant": false,
      "inputs": [
        {
          "internalType": "uint256",
          "name": "_id",
          "type": "uint256"
        },
        {
          "internalType": "string",
          "name": "_name",
          "type": "string"
        }
      ],
      "name": "Update",
      "outputs": [],
      "payable": false,
      "stateMutability": "nonpayable",
      "type": "function"
    },
    {
      "constant": false,
      "inputs": [
        {
          "internalType": "uint256",
          "name": "_id",
          "type": "uint256"
        }
      ],
      "name": "Delete",
      "outputs": [],
      "payable": false,
      "stateMutability": "nonpayable",
      "type": "function"
    }
  ],
  "bytecode": "0x6080604052600160005534801561001557600080fd5b5061074e806100256000396000f3fe608060405234801561001057600080fd5b50600436106100625760003560e01c80631e98fd1c146100675780634861b2cc1461010e5780634fedc4de146101c957806354023f0b1461027757806361b8ce8c1461033c5780637d815d571461035a575b600080fd5b6100936004803603602081101561007d57600080fd5b8101908080359060200190929190505050610388565b6040518080602001828103825283818151815260200191508051906020019080838360005b838110156100d35780820151818401526020810190506100b8565b50505050905090810190601f1680156101005780820380516001836020036101000a031916815260200191505b509250505060405180910390f35b6101c76004803603602081101561012457600080fd5b810190808035906020019064010000000081111561014157600080fd5b82018360208201111561015357600080fd5b8035906020019184600183028401116401000000008311171561017557600080fd5b91908080601f016020809104026020016040519081016040528093929190818152602001838380828437600081840152601f19601f820116905080830192505050505050509192919290505050610438565b005b6101f5600480360360208110156101df57600080fd5b8101908080359060200190929190505050610475565b6040518083815260200180602001828103825283818151815260200191508051906020019080838360005b8381101561023b578082015181840152602081019050610220565b50505050905090810190601f1680156102685780820380516001836020036101000a031916815260200191505b50935050505060405180910390f35b61033a6004803603604081101561028d57600080fd5b8101908080359060200190929190803590602001906401000000008111156102b457600080fd5b8201836020820111156102c657600080fd5b803590602001918460018302840111640100000000831117156102e857600080fd5b91908080601f016020809104026020016040519081016040528093929190818152602001838380828437600081840152601f19601f82011690508083019250505050505050919291929050505061048c565b005b6103446104c2565b6040518082815260200191505060405180910390f35b6103866004803603602081101561037057600080fd5b81019080803590602001909291905050506104c8565b005b60016020528060005260406000206000915090508054600181600116156101000203166002900480601f0160208091040260200160405190810160405280929190818152602001828054600181600116156101000203166002900480156104305780601f1061040557610100808354040283529160200191610430565b820191906000526020600020905b81548152906001019060200180831161041357829003601f168201915b505050505081565b806001600080548152602001908152602001600020908051906020019061046092919061062c565b50600080815480929190600101919050555050565b6000606082610483846104f4565b91509150915091565b610495826104f4565b50806001600084815260200190815260200160002090805190602001906104bd92919061062c565b505050565b60005481565b6104d1816104f4565b506001600082815260200190815260200160002060006104f191906106ac565b50565b606080600160008481526020019081526020016000208054600181600116156101000203166002900480601f01602080910402602001604051908101604052809291908181526020018280546001816001161561010002031660029004801561059e5780601f106105735761010080835404028352916020019161059e565b820191906000526020600020905b81548152906001019060200180831161058157829003601f168201915b505050505090506060819050600081511415610622576040517f08c379a00000000000000000000000000000000000000000000000000000000081526004018080602001828103825260148152602001807f5573657220646f6573206e6f742065786973742100000000000000000000000081525060200191505060405180910390fd5b8192505050919050565b828054600181600116156101000203166002900490600052602060002090601f016020900481019282601f1061066d57805160ff191683800117855561069b565b8280016001018555821561069b579182015b8281111561069a57825182559160200191906001019061067f565b5b5090506106a891906106f4565b5090565b50805460018160011615610100020316600290046000825580601f106106d257506106f1565b601f0160209004906000526020600020908101906106f091906106f4565b5b50565b61071691905b808211156107125760008160009055506001016106fa565b5090565b9056fea265627a7a723158208775873d32abeb0785426b1a2caafa96c71fb3e1d4d6cbbb16811682639a91df64736f6c63430005100032",
  "source": "pragma solidity >=0.4.16 <0.8.0;\r\n\r\ncontract Crud {\r\n    struct User {\r\n        uint256 id;\r\n        string name;\r\n    }\r\n\r\n    uint256 public nextId = 1;\r\n    mapping(uint256 => string) public Users;\r\n\r\n    constructor() public {}\r\n\r\n    function Create(string memory _name) public {\r\n        Users[nextId] = _name;\r\n        nextId++;\r\n    }\r\n\r\n    function Read(uint256 _id) public view returns (uint256, string memory) {\r\n        return (_id, Find(_id));\r\n    }\r\n\r\n    function Update(uint256 _id, string memory _name) public {\r\n        Find(_id);\r\n        Users[_id] = _name;\r\n    }\r\n\r\n    function Delete(uint256 _id) public {\r\n        Find(_id);\r\n        delete Users[_id];\r\n    }\r\n\r\n    function Find(uint256 _id) internal view returns (string memory) {\r\n        string memory _name = Users[_id];\r\n        bytes memory val = bytes(_name);\r\n        if (val.length == 0) {\r\n            revert(\"User does not exist!\");\r\n        } else return _name;\r\n    }\r\n}\r\n",
  "sourcePath": "C:/blockchain/ethereum/projects/crud/contracts/Crud.sol",
  "compiler": {
    "name": "solc",
    "version": "0.5.16+commit.9c3226ce.Emscripten.clang"
  },
  "schemaVersion": "3.0.22",
  "updatedAt": "2020-08-29T17:40:56.598Z",
  "networkType": "ethereum",
  "devdoc": {
    "methods": {}
  },
  "userdoc": {
    "methods": {}
  }
}